:100000000C9462000C948A000C948A000C948A0070
:100010000C948A000C948A000C948A000C948A0038
:100020000C948A000C948A000C948A000C948A0028
:100030000C948A000C948A000C948A000C948A0018
:100040000C94B8020C948A000C947E020C94430227
:100050000C948A000C948A000C948A000C948A00F8
:100060000C948A000C948A000000000024002700F1
:100070002A0000000000250028002B0000000000DE
:1000800023002600290004040404040404040202DA
:100090000202020203030303030301020408102007
:1000A0004080010204081020010204081020000012
:1000B0000007000201000003040600000000000029
:1000C0000000020311241FBECFEFD8E0DEBFCDBF7A
:1000D00011E0A0E0B1E0E0E9F8E002C005900D9287
:1000E000A032B107D9F721E0A0E2B1E001C01D9232
:1000F000A33DB207E1F710E0C2E6D0E004C02197CB
:10010000FE010E944004C136D107C9F70E943D0399
:100110000C943D040C9400000F931F93CF93DF9336
:10012000FC01A685B7858D01005C1F4FE801888121
:10013000998101968F739927AD014E5B5F4FEA015C
:100140002881398182179307D1F3E8012881398109
:10015000A20FB31F6C93A685B785A05CBF4F119605
:100160009C938E93A689B7892C9181E090E0078CAF
:1001700002C0880F991F0A94E2F7822B8C9381E0CA
:1001800081A30488F589E02D80818064808381E0EB
:1001900090E0DF91CF911F910F910895FC0181A113
:1001A000882329F0A489B5898C9186FFFBCF11A201
:1001B0000895FC01A485B585FD01E05CFF4F208119
:1001C00031813296808191812817390779F08081B9
:1001D0009181A80FB91F8C91208131812F5F3F4FF2
:1001E0002F7333273183208390E008958FEF9FEFA3
:1001F0000895DC011C96ED91FC911D97DF01A05C38
:10020000BF4F2D913C91119712968D919C91119712
:100210002817390739F08D919C91E80FF91F8081DB
:1002200090E008958FEF9FEF0895FC0124853585B8
:10023000F901E05CFF4F808191813296208131810C
:10024000821B930B8F739927089581EB91E00C9497
:1002500015010895CF92DF92EF92FF920F931F93B3
:10026000CF93DF936C01EB017B01E40EF51E00E000
:1002700010E0CE15DF0561F06991D601ED91FC919A
:100280000190F081E02DC6010995080F191FF1CFEB
:10029000C801DF91CF911F910F91FF90EF90DF90F8
:1002A000CF900895833081F028F4813099F0823026
:1002B000A1F008958630A9F08730B9F08430D1F4E8
:1002C000809180008F7D03C0809180008F77809324
:1002D0008000089584B58F7702C084B58F7D84BD7A
:1002E00008958091B0008F7703C08091B0008F7D1A
:1002F0008093B00008951F93CF93DF93282F30E0B1
:10030000F901E255FF4F8491F901E656FF4FD49170
:10031000F901EA57FF4FC491CC23C9F0162F811180
:100320000E945201EC2FF0E0EE0FFF1FEE58FF4F3E
:10033000A591B4918FB7F894111105C09C91ED2F40
:10034000E095E92302C0EC91ED2BEC938FBFDF9198
:10035000CF911F910895CF93DF9390E0FC01E65673
:10036000FF4F2491FC01EA57FF4F8491882361F1EC
:1003700090E0880F991FFC01E859FF4FC591D49177
:10038000FC01EE58FF4FA591B491611109C09FB7D0
:10039000F8948881209582238883EC912E230BC0CA
:1003A000623061F49FB7F8943881822F809583235F
:1003B0008883EC912E2B2C939FBF06C08FB7F894A7
:1003C000E8812E2B28838FBFDF91CF9108953FB70F
:1003D000F8948091250190912601A0912701B09178
:1003E000280126B5A89B05C02F3F19F00196A11D35
:1003F000B11D3FBFBA2FA92F982F8827820F911DBB
:10040000A11DB11DBC01CD0142E0660F771F881F01
:10041000991F4A95D1F708950F931F93CF93DF93B8
:10042000009779F0FC0101900020E9F73197AF01C6
:10043000481B590BBC0181EB91E00E942A01EC01A1
:1004400002C0C0E0D0E0E091B101F091B2010190B2
:10045000F081E02D6DE081EB91E009958C01E09158
:10046000B101F091B2010190F081E02D6AE081EBE1
:1004700091E00995C00FD11F8C0F9D1FDF91CF9187
:100480001F910F9108951F920F920FB60F92112492
:100490002F933F938F939F93EF93FF932091690145
:1004A00030916A0180916B0190916C012817390796
:1004B00031F48091C1008F7D8093C10014C0E09120
:1004C0006B01F0916C01E75DFE4F208180916B0123
:1004D00090916C0101968F73992790936C01809392
:1004E0006B012093C600FF91EF919F918F913F91F7
:1004F0002F910F900FBE0F901F9018951F920F9283
:100500000FB60F9211242F934F935F938F939F9366
:10051000EF93FF938091C00082FD1CC02091C60024
:100520008091AD019091AE0101968F739927409112
:10053000AF015091B0018417950771F0E091AD01C2
:10054000F091AE01E359FE4F20839093AE0180936A
:10055000AD0102C08091C600FF91EF919F918F91F4
:100560005F914F912F910F900FBE0F901F90189594
:100570001F920F920FB60F9211242F933F938F93D8
:100580009F93AF93BF938091210190912201A091FD
:100590002301B09124013091200123E0230F2D3756
:1005A00020F40196A11DB11D05C026E8230F029677
:1005B000A11DB11D20932001809321019093220160
:1005C000A0932301B09324018091250190912601ED
:1005D000A0912701B09128010196A11DB11D809322
:1005E000250190932601A0932701B0932801BF9184
:1005F000AF919F918F913F912F910F900FBE0F90D0
:100600001F901895E1EBF1E01382128288EE93E0DF
:10061000A0E0B0E084839583A683B78384E091E073
:10062000918380838DE691E09587848789E291E0CC
:100630009787868785EC90E0918B808B84EC90E0A7
:10064000938B828B80EC90E0958B848B81EC90E097
:10065000978B868B82EC90E0918F808F86EC90E078
:10066000938F828F84E0848F83E0858F87E0868FED
:1006700085E0878F81E080A30895789484B58260B7
:1006800084BD84B5816084BD85B5826085BD85B536
:10069000816085BD80916E00816080936E001092B4
:1006A000810080918100826080938100809181002F
:1006B00081608093810080918000816080938000C0
:1006C0008091B10084608093B1008091B00081601E
:1006D0008093B00080917A00846080937A0080914A
:1006E0007A00826080937A0080917A0081608093A2
:1006F0007A0080917A00806880937A001092C1001D
:1007000060E084E00E94AB0161E083E00E94AB0105
:1007100061E085E00E94AB01E091C501F091C60166
:1007200081E090E09C010090D10102C0220F331FB4
:100730000A94E2F72083E091C101F091C201108296
:10074000E091C301F091C40120E120831092D20115
:10075000E091C701F091C80140819C010090CD015A
:1007600002C0220F331F0A94E2F7242B2083E0916A
:10077000C701F091C80140819C010090CE0102C0E8
:10078000220F331F0A94E2F7242B2083E091C70144
:10079000F091C80140819C010090CF0102C0220F5E
:1007A000331F0A94E2F7242B2083E091C701F091D4
:1007B000C80120810090D00102C0880F991F0A94BF
:1007C000E2F780958223808380E191E00E940C0211
:1007D000C2EBD0E00EE910E03AE8E32E30E0F32E71
:1007E000FE018491F801C490F701D490DD2009F452
:1007F00041C081110E9452018D2D90E0880F991FF8
:1008000084589F4FFC01A591B4918C91C82291F11D
:1008100061E083E00E947B0161E085E00E947B0152
:100820008AE191E00E940C020E94E7016B0188EED0
:10083000882E83E0982EA12CB12C0E94E7016C1920
:100840007D09683E734048F081E0881A9108A1084C
:10085000B108E8E1CE1AECEFDE0A81149104A1049C
:10086000B10459F760E085E00E947B0160E083E01D
:100870000E947B010E942501B3CFF8940C9446049A
:10088000EE0FFF1F0590F491E02D0994F894FFCF2F
:10089000000000008C002A011501D900F900CE00EB
:1008A0006573706572616E646F007477656574005E
:00000001FF
