:100000000C945C000C946E000C946E000C946E00CA
:100010000C946E000C946E000C946E000C946E00A8
:100020000C946E000C946E000C946E000C946E0098
:100030000C946E000C946E000C946E000C946E0088
:100040000C94B8000C946E000C946E000C946E002E
:100050000C946E000C946E000C946E000C946E0068
:100060000C946E000C946E00000000002400270029
:100070002A0000000000250028002B0004040404CE
:100080000404040402020202020203030303030342
:10009000010204081020408001020408102001021F
:1000A00004081020000000070002010000030406FD
:1000B000000000000000000011241FBECFEFD8E0B8
:1000C000DEBFCDBF21E0A0E0B1E001C01D92A930AC
:1000D000B207E1F70E9402010C94A1010C94000008
:1000E000E8EAF0E02491E4E9F0E09491E0E8F0E05F
:1000F000E491EE2309F43BC0222339F1233091F03F
:1001000038F42130A9F0223001F524B52F7D12C03A
:10011000263091F02730A1F02430B9F420918000EE
:100120002F7D03C0209180002F77209380000DC089
:1001300024B52F7724BD09C02091B0002F7703C0CC
:100140002091B0002F7D2093B000F0E0EE0FFF1F54
:10015000EE58FF4FA591B4912FB7F894EC9181110F
:1001600003C090959E2301C09E2B9C932FBF0895A2
:100170001F920F920FB60F9211242F933F938F93DC
:100180009F93AF93BF938091050190910601A09139
:100190000701B09108013091040123E0230F2D37AE
:1001A00020F40196A11DB11D05C026E8230F02967B
:1001B000A11DB11D209304018093050190930601B8
:1001C000A0930701B0930801809100019091010173
:1001D000A0910201B09103010196A11DB11D809370
:1001E000000190930101A0930201B0930301BF911C
:1001F000AF919F918F913F912F910F900FBE0F90D4
:100200001F901895789484B5826084BD84B5816010
:1002100084BD85B5826085BD85B5816085BD8091D1
:100220006E00816080936E00109281008091810049
:100230008260809381008091810081608093810041
:10024000809180008160809380008091B100846003
:100250008093B1008091B00081608093B000809164
:100260007A00846080937A0080917A008260809323
:100270007A0080917A00816080937A0080917A0080
:10028000806880937A001092C100EEE9F0E024913A
:10029000EAE8F0E084918823C1F090E0880F991F8C
:1002A000FC01E859FF4FC591D491FC01EE58FF4F76
:1002B000A591B4919FB7F8948881E22FE0958E23A1
:1002C00088838C91E823EC939FBFE4E9F0E02491CC
:1002D000E0E8F0E08491882399F090E0880F991F7E
:1002E000FC01E859FF4FA591B491FC01EE58FF4F76
:1002F000859194918FB7F894EC91E22BEC938FBF9A
:10030000C0E0D0E010E410937C0080917A0080641B
:1003100080937A0080917A0086FDFCCF80917800EE
:100320002091790090E0922B883C910514F481E0B3
:1003300001C080E00E947000209729F30E94000015
:0C034000E2CFF8940C94A401F894FFCFD5
:00000001FF
