:100000000C9462000C948A000C948A000C948A0070
:100010000C948A000C948A000C948A000C948A0038
:100020000C948A000C948A000C948A000C948A0028
:100030000C948A000C948A000C948A000C948A0018
:100040000C9414050C948A000C94DA040C949F040C
:100050000C948A000C948A000C948A000C948A00F8
:100060000C948A000C948A000000000024002700F1
:100070002A0000000000250028002B0000000000DE
:1000800023002600290004040404040404040202DA
:100090000202020203030303030301020408102007
:1000A0004080010204081020010204081020000012
:1000B0000007000201000003040600000000000029
:1000C00000005E0511241FBECFEFD8E0DEBFCDBF1C
:1000D00011E0A0E0B1E0ECEFF2E102C005900D927A
:1000E000A236B107D9F722E0A2E6B1E001C01D9225
:1000F000A332B207E1F710E0C2E6D0E004C02197D6
:10010000FE010E947609C136D107C9F70E94A205F7
:100110000C940E070C940000E091F301F091F401AF
:100120000190F081E02D682F83EF91E009940F9307
:100130001F93CF93DF93FC01A685B7858D01005CEB
:100140001F4FE8018881998101968F739927AD012E
:100150004E5B5F4FEA012881398182179307D1F303
:10016000E80128813981A20FB31F6C93A685B7855A
:10017000A05CBF4F11969C938E93A689B7892C9152
:1001800081E090E0078C02C0880F991F0A94E2F783
:10019000822B8C9381E081A30488F589E02D8081F6
:1001A0008064808381E090E0DF91CF911F910F9177
:1001B0000895FC0181A1882329F0A489B5898C9137
:1001C00086FFFBCF11A20895FC01A485B585FD0132
:1001D000E05CFF4F20813181329680819181281728
:1001E000390779F080819181A80FB91F8C91208106
:1001F00031812F5F3F4F2F7333273183208390E06E
:1002000008958FEF9FEF0895DC011C96ED91FC910E
:100210001D97DF01A05CBF4F2D913C911197129665
:100220008D919C9111972817390739F08D919C91E8
:10023000E80FF91F808190E008958FEF9FEF0895F8
:10024000FC0124853585F901E05CFF4F80819181B7
:10025000329620813181821B930B8F7399270895E9
:1002600083EF91E00C9420010895CF92DF92EF92FA
:10027000FF920F931F93CF93DF936C01EB017B01F0
:10028000E40EF51E00E010E0CE15DF0561F0699187
:10029000D601ED91FC910190F081E02DC601099508
:1002A000080F191FF1CFC801DF91CF911F910F9156
:1002B000FF90EF90DF90CF900895833081F028F485
:1002C000813099F08230A1F008958630A9F087300E
:1002D000B9F08430D1F4809180008F7D03C080918B
:1002E00080008F7780938000089584B58F7702C057
:1002F00084B58F7D84BD08958091B0008F7703C051
:100300008091B0008F7D8093B0000895CF93DF93EC
:10031000282F30E0F901E255FF4F8491F901E656AC
:10032000FF4FD491F901EA57FF4FC491CC2391F0CC
:1003300081110E945D01EC2FF0E0EE0FFF1FE458E9
:10034000FF4FA591B491EC91ED2381E090E021F471
:1003500080E002C080E090E0DF91CF9108951F938C
:10036000CF93DF93282F30E0F901E255FF4F8491BE
:10037000F901E656FF4FD491F901EA57FF4FC491B6
:10038000CC23C9F0162F81110E945D01EC2FF0E003
:10039000EE0FFF1FEE58FF4FA591B4918FB7F89461
:1003A000111105C09C91ED2FE095E92302C0EC915D
:1003B000ED2BEC938FBFDF91CF911F910895CF93D9
:1003C000DF9390E0FC01E656FF4F2491FC01EA57D1
:1003D000FF4F8491882361F190E0880F991FFC0101
:1003E000E859FF4FC591D491FC01EE58FF4FA591FC
:1003F000B491611109C09FB7F89488812095822338
:100400008883EC912E230BC0623061F49FB7F8947F
:100410003881822F809583238883EC912E2B2C9317
:100420009FBF06C08FB7F894E8812E2B28838FBF1B
:10043000DF91CF9108953FB7F89480916301909137
:100440006401A0916501B091660126B5A89B05C025
:100450002F3F19F00196A11DB11D3FBFBA2FA92F43
:10046000982F8827820F911DA11DB11DBC01CD01C0
:1004700042E0660F771F881F991F4A95D1F70895AC
:10048000CF92DF92EF92FF92CF93DF936B017C01CB
:100490000E941B02EB01C114D104E104F10479F0C4
:1004A0000E941B026C1B7D0B683E7340A0F381E031
:1004B000C81AD108E108F108C851DC4FECCFDF9130
:1004C000CF91FF90EF90DF90CF900895EF92FF9241
:1004D0001F93CF93DF9361E080911B020E94AF01D5
:1004E0006AEF70E080E090E00E9440022FB7F8943D
:1004F0008091670190916801A0916901B0916A01B2
:100500002FBF40911E0250911F02609120027091F6
:10051000210284179507A607B70740F410921E0220
:1005200010921F02109220021092210220912202AA
:10053000211113C040911E0250911F0260912002B0
:1005400070912102841B950BA60BB70B803D974041
:10055000A105B10510F481E085C0109222022FB7E9
:10056000F8948091670190916801A0916901B09120
:100570006A012FBF80931E0290931F02A093200256
:10058000B0932102109219021092180210921702D1
:10059000109216021092150261E080911B020E94D7
:1005A000DF0160E080911B020E94AF0164E170E016
:1005B00080E090E00E94400261E080911B020E9476
:1005C000AF018AE990E00197F1F760E080911B02AA
:1005D0000E94DF0110E0C0E081E0D0E0E82EF12CC5
:1005E00080911B020E9486018E159F0519F4DF5F22
:1005F000DF3FB1F780911B020E948601DF3FC1F00F
:10060000C43098F0C0FD11C0E12FE695E695E6955F
:10061000F0E0EB5EFD4F9081990F908320911D02D9
:100620002D1710F4916090831F5FCF5FC535A9F639
:100630001832B8F02091190230E0409115028091F3
:10064000160290E0840F911D40911702840F911DB6
:1006500040911802840F911D99272817390709F432
:100660007ACF80E0DF91CF911F91FF90EF900895B6
:10067000009769F0FC0101900020E9F73197AF0184
:10068000481B590BBC0183EF91E00C94350180E0CD
:1006900090E008950F931F93CF93DF930E94380348
:1006A000EC018DE00E948C008C018AE00E948C009D
:1006B000C00FD11F8C0F9D1FDF91CF911F910F9104
:1006C00008958F929F92AF92BF92EF92FF920F93F5
:1006D0001F93CF93DF93CDB7DEB7A1970FB6F894F2
:1006E000DEBF0FBECDBF162F042F19A2423008F473
:1006F0000AE07E0121E2E20EF11C802E912CA12C59
:10070000B12C612FA50194010E945409029F101978
:10071000112481E0E81AF1081A3014F4105D01C0C8
:10072000195CF7011083122F732FCA01232B242B7E
:10073000252B39F7C7010E943803A1960FB6F8940C
:10074000DEBF0FBECDBFDF91CF911F910F91FF9004
:10075000EF90BF90AF909F908F9008954F925F92CF
:100760006F927F928F929F92AF92BF92CF92DF92C1
:10077000EF92FF92CF93DF936B017C01C42F9B011B
:10078000AC010E944F09882319F080E191E027C055
:1007900046015701E894B7F82FEF3FEF4FE75FE7C7
:1007A000C501B4010E944F0981110DC02FEF3FEF29
:1007B0004FE75FE7C501B4010E947E0718161CF4DD
:1007C00084E191E00CC02FEF3FEF4FE75FE4C701FA
:1007D000B6010E94DD08181694F488E191E0DF91DB
:1007E000CF91FF90EF90DF90CF90BF90AF909F9010
:1007F0008F907F906F905F904F900C9438032FEF05
:100800003FEF4FE75FECC701B6010E947E0787FD0F
:10081000E4CF20E030E0A901C701B6010E947E07C5
:1008200087FF09C08DE20E948C005C01F7FAF0940A
:10083000F7F8F09402C0A12CB12CD0E060E070E099
:1008400080E09FE3DC1741F020E030E040E251E43B
:100850000E948307DF5FF6CF9B01AC01C701B601A1
:100860000E9412072B013C010E94FC076B017C01D6
:100870000E942B089B01AC01C301B2010E94110729
:100880002B013C014AE0C701B6010E9461037C01D3
:10089000EA0CFB1CCC2331F08CE191E00E94380380
:1008A000E80EF91EDC2EDD20D1F120E030E040E240
:1008B00051E4C301B2010E94E2082B013C010E94F5
:1008C000F5074B01770FAA08BB08B7FE13C08DE2EE
:1008D0000E948C00EC0188279927DC01881999096E
:1008E000AA09BB094AE0BC01CD010E9461038C0F3B
:1008F0009D1F05C04AE0C501B4010E946103E80ED6
:10090000F91EC501B4010E942D089B01AC01C30171
:10091000B2010E9411072B013C01DA94C4CFC70138
:10092000DF91CF91FF90EF90DF90CF90BF90AF908D
:100930009F908F907F906F905F904F9008951F923F
:100940000F920FB60F9211242F933F938F939F9383
:10095000EF93FF932091AB013091AC018091AD01F9
:100960009091AE012817390731F48091C1008F7D35
:100970008093C10014C0E091AD01F091AE01E55942
:10098000FE4F20818091AD019091AE0101968F7351
:1009900099279093AE018093AD012093C600FF91FB
:1009A000EF919F918F913F912F910F900FBE0F90DC
:1009B0001F9018951F920F920FB60F9211242F932C
:1009C0004F935F938F939F93EF93FF938091C0001A
:1009D00082FD1CC02091C6008091EF019091F00132
:1009E00001968F7399274091F1015091F20184177C
:1009F000950771F0E091EF01F091F001E155FE4FA4
:100A000020839093F0018093EF0102C08091C60093
:100A1000FF91EF919F918F915F914F912F910F9047
:100A20000FBE0F901F9018951F920F920FB60F9246
:100A300011242F933F938F939F93AF93BF938091F4
:100A4000670190916801A0916901B0916A013091AC
:100A5000620123E0230F2D3720F40196A11DB11D63
:100A600005C026E8230F0296A11DB11D2093620147
:100A70008093670190936801A0936901B0936A0124
:100A80008091630190916401A0916501B09166012C
:100A90000196A11DB11D8093630190936401A09301
:100AA0006501B0936601BF91AF919F918F913F9186
:100AB0002F910F900FBE0F901F901895E3EFF1E06C
:100AC0001382128288EE93E0A0E0B0E084839583E5
:100AD000A683B78384E091E0918380838FEA91E0DD
:100AE000958784878BE691E09787868785EC90E0F1
:100AF000918B808B84EC90E0938B828B80EC90E0E8
:100B0000958B848B81EC90E0978B868B82EC90E0C8
:100B1000918F808F86EC90E0938F828F84E0848F1A
:100B200083E0858F87E0868F85E0878F81E080A3D3
:100B3000E5E1F2E09EE096839BE0978396E0908764
:100B400085870895789484B5826084BD84B581607A
:100B500084BD85B5826085BD85B5816085BD809188
:100B60006E00816080936E00109281008091810000
:100B700082608093810080918100816080938100F8
:100B8000809180008160809380008091B1008460BA
:100B90008093B1008091B00081608093B00080911B
:100BA0007A00846080937A0080917A0082608093DA
:100BB0007A0080917A00816080937A0080917A0037
:100BC000806880937A001092C100E0910702F09152
:100BD000080281E090E09C010090130202C0220F05
:100BE000331F0A94E2F72083E0910302F09104029C
:100BF0001082E0910502F09106022FEC2083109202
:100C00001402E0910902F0910A0240819C010090D7
:100C10000F0202C0220F331F0A94E2F7242B208315
:100C2000E0910902F0910A0240819C0100901002BB
:100C300002C0220F331F0A94E2F7242B2083E09195
:100C40000902F0910A0240819C010090110202C049
:100C5000220F331F0A94E2F7242B2083E09109022C
:100C6000F0910A0220810090120202C0880F991FA1
:100C70000A94E2F780958223808360E080911B02D2
:100C80000E94DF0161E080911B020E94AF0110927F
:100C90001E0210921F0210922002109221020E9446
:100CA00066028823B1F180911C028B3041F188F1FA
:100CB0008551823070F56091150270E080E090E01F
:100CC0000E942B0820E030E040E853E40E94E20854
:100CD0006B017C0180911602682F70E080E090E04B
:100CE0000E942D089B01AC01C701B6010E941207AA
:100CF00020E030E040E251E40E94830707C06091A9
:100D0000150270E080E090E00E942B084B015C012E
:100D10000AC08EE191E00E943803812C912C80EC76
:100D2000A82E8FE7B82E0E946602882309F441C0DE
:100D300080911C028B3029F0E0F18551823058F00F
:100D400038C06091170270E080E090E00E942B08AC
:100D50006B017C0133C0C09117026C2F6F7770E07C
:100D600080E090E00E942D0820E030E040E853E46D
:100D70000E94E2086B017C0180911802682F70E0EC
:100D800080E090E00E942D089B01AC01C701B601F4
:100D90000E94120720E030E040E251E40E94830705
:100DA0006B017C01C7FF0AC0F7FAF094F7F8F094E2
:100DB00005C08EE191E00E94380329C0A701960189
:100DC000C701B6010E944F09811121C0A5019401FC
:100DD000C501B4010E944F09811119C088E291E058
:100DE0000E94380342E0C501B4010E94AE0383E3D0
:100DF00091E00E94380387E391E00E94380342E0CB
:100E0000C701B6010E94AE0385E491E002C089E407
:100E100091E00E944A030E94300141CFF8940C9463
:100E20007C095058BB27AA270E9429070C94A308C5
:100E30000E94950838F00E949C0820F039F49F3FEA
:100E400019F426F40C9492080EF4E095E7FB0C9448
:100E50008C08E92F0E94B40858F3BA176207730789
:100E60008407950720F079F4A6F50C94D6080EF4C3
:100E7000E0950B2EBA2FA02D0B01B90190010C01AA
:100E8000CA01A0011124FF27591B99F0593F50F4C2
:100E9000503E68F11A16F040A22F232F342F44271A
:100EA000585FF3CF469537952795A795F040539512
:100EB000C9F77EF41F16BA0B620B730B840BBAF0E2
:100EC0009150A1F0FF0FBB1F661F771F881FC2F74D
:100ED0000EC0BA0F621F731F841F48F48795779561
:100EE0006795B795F7959E3F08F0B0CF9395880F1B
:100EF00008F09927EE0F9795879508950E94680846
:100F000008F481E008950E9497070C94A3080E94BA
:100F10009C0858F00E94950840F029F45F3F29F0A2
:100F20000C948C0851110C94D7080C9492080E94D0
:100F3000B40868F39923B1F3552391F3951B550B2E
:100F4000BB27AA2762177307840738F09F5F5F4F9C
:100F5000220F331F441FAA1FA9F335D00E2E3AF0DB
:100F6000E0E832D091505040E695001CCAF72BD0F3
:100F7000FE2F29D0660F771F881FBB1F2617370744
:100F80004807AB07B0E809F0BB0B802DBF01FF2776
:100F900093585F4F3AF09E3F510578F00C948C08BF
:100FA0000C94D7085F3FE4F3983ED4F38695779589
:100FB0006795B795F7959F5FC9F7880F911D96952F
:100FC000879597F90895E1E0660F771F881FBB1F8B
:100FD000621773078407BA0720F0621B730B840B38
:100FE000BA0BEE1F88F7E09508950E94FC076894FD
:100FF000B1110C94D70808950E94BC0888F09F573F
:1010000098F0B92F9927B751B0F0E1F0660F771F2C
:10101000881F991F1AF0BA95C9F714C0B13091F022
:101020000E94D608B1E008950C94D608672F782F57
:101030008827B85F39F0B93FCCF3869577956795E7
:10104000B395D9F73EF490958095709561957F4F53
:101050008F4F9F4F0895E89409C097FB3EF49095F9
:101060008095709561957F4F8F4F9F4F9923A9F081
:10107000F92F96E9BB279395F69587957795679510
:10108000B795F111F8CFFAF4BB0F11F460FF1BC054
:101090006F5F7F4F8F4F9F4F16C0882311F096E9E7
:1010A00011C0772321F09EE8872F762F05C0662395
:1010B00071F096E8862F70E060E02AF09A95660F4E
:1010C000771F881FDAF7880F9695879597F9089507
:1010D000990F0008550FAA0BE0E8FEEF1616170649
:1010E000E807F907C0F012161306E407F50798F0B1
:1010F000621B730B840B950B39F40A2661F0232BCA
:10110000242B252B21F408950A2609F4A140A69545
:101110008FEF811D811D089597F99F6780E870E02A
:1011200060E008959FEF80EC089500240A9416165D
:10113000170618060906089500240A9412161306C5
:10114000140605060895092E0394000C11F4882353
:1011500052F0BB0F40F4BF2B11F460FF04C06F5F6F
:101160007F4F8F4F9F4F089557FD9058440F551F45
:1011700059F05F3F71F04795880F97FB991F61F019
:101180009F3F79F087950895121613061406551F90
:10119000F2CF4695F1DF08C0161617061806991FFC
:1011A000F1CF86957105610508940895E894BB27F1
:1011B00066277727CB0197F908950E94680808F4FD
:1011C0008FEF08950E94F5080C94A3080E949508DB
:1011D00038F00E949C0820F0952311F00C948C08A4
:1011E0000C94920811240C94D7080E94B40870F350
:1011F000959FC1F3950F50E0551F629FF001729FBC
:10120000BB27F00DB11D639FAA27F00DB11DAA1FCA
:10121000649F6627B00DA11D661F829F2227B00D17
:10122000A11D621F739FB00DA11D621F839FA00DA2
:10123000611D221F749F3327A00D611D231F849FF2
:10124000600D211D822F762F6A2F11249F57504049
:101250009AF0F1F088234AF0EE0FFF1FBB1F661FC4
:10126000771F881F91505040A9F79E3F510580F08D
:101270000C948C080C94D7085F3FE4F3983ED4F3A9
:10128000869577956795B795F795E7959F5FC1F731
:10129000FE2B880F911D9695879597F908950E94CA
:1012A0006808880B990B0895A1E21A2EAA1BBB1B94
:1012B000FD010DC0AA1FBB1FEE1FFF1FA217B30722
:1012C000E407F50720F0A21BB30BE40BF50B661F38
:1012D000771F881F991F1A9469F7609570958095FC
:1012E00090959B01AC01BD01CF010895EE0FFF1F4A
:0C12F0000590F491E02D0994F894FFCFD4
:1012FC0000000000970035012001E4000401D90032
:10130C006E616E00696E66006F7666002E00526527
:10131C006164206661696C0048756D6964697479F3
:10132C003A20002025090054656D70657261747552
:10133C0072653A2000202A43004661696C6564207E
:10134C00746F20726561642066726F6D204448541E
:02135C0000008F
:00000001FF
