:100000000C9435000C945D000C945D000C945D0024
:100010000C945D000C945D000C945D000C945D00EC
:100020000C945D000C945D000C945D000C945D00DC
:100030000C945D000C945D000C945D000C945D00CC
:100040000C94BF010C945D000C9485010C944A0142
:100050000C945D000C945D000C945D000C945D00AC
:100060000C945D000C945D00090211241FBECFEFBB
:10007000D8E0DEBFCDBF11E0A0E0B1E0E2E2F6E003
:1000800002C005900D92AE31B107D9F721E0AEE183
:10009000B1E001C01D92A13DB207E1F710E0C5E358
:1000A000D0E004C02197FE010E940903C433D107A8
:1000B000C9F70E9444020C9406030C9400000F93AD
:1000C0001F93CF93DF93FC01A685B7858D01005C5C
:1000D0001F4FE8018881998101968F739927AD019F
:1000E0004E5B5F4FEA012881398182179307D1F374
:1000F000E80128813981A20FB31F6C93A685B785CB
:10010000A05CBF4F11969C938E93A689B7892C91C2
:1001100081E090E0078C02C0880F991F0A94E2F7F3
:10012000822B8C9381E081A30488F589E02D808166
:100130008064808381E090E0DF91CF911F910F91E7
:100140000895FC0181A1882329F0A489B5898C91A7
:1001500086FFFBCF11A20895FC01A485B585FD01A2
:10016000E05CFF4F20813181329680819181281798
:10017000390779F080819181A80FB91F8C91208176
:1001800031812F5F3F4F2F7333273183208390E0DE
:1001900008958FEF9FEF0895DC011C96ED91FC917F
:1001A0001D97DF01A05CBF4F2D913C9111971296D6
:1001B0008D919C9111972817390739F08D919C9159
:1001C000E80FF91F808190E008958FEF9FEF089569
:1001D000FC0124853585F901E05CFF4F8081918128
:1001E000329620813181821B930B8F73992708955A
:1001F0008FEA91E00C94E8000895CF92DF92EF929D
:10020000FF920F931F93CF93DF936C01EB017B0160
:10021000E40EF51E00E010E0CE15DF0561F06991F7
:10022000D601ED91FC910190F081E02DC601099578
:10023000080F191FF1CFC801DF91CF911F910F91C6
:10024000FF90EF90DF90CF9008953FB7F8948091A2
:10025000230190912401A0912501B091260126B59A
:10026000A89B05C02F3F19F00196A11DB11D3FBFEE
:10027000BA2FA92F982F8827820F911DA11DB11D7C
:10028000BC01CD0142E0660F771F881F991F4A9578
:10029000D1F708951F920F920FB60F9211242F934A
:1002A0003F938F939F93EF93FF932091670130913A
:1002B00068018091690190916A012817390731F42A
:1002C0008091C1008F7D8093C10014C0E0916901CD
:1002D000F0916A01E95DFE4F208180916901909162
:1002E0006A0101968F73992790936A01809369013F
:1002F0002093C600FF91EF919F918F913F912F9195
:100300000F900FBE0F901F9018951F920F920FB66F
:100310000F9211242F934F935F938F939F93EF939B
:10032000FF938091C00082FD1CC02091C600809187
:10033000AB019091AC0101968F7399274091AD016B
:100340005091AE018417950771F0E091AB01F091E7
:10035000AC01E559FE4F20839093AC018093AB0133
:1003600002C08091C600FF91EF919F918F915F91A4
:100370004F912F910F900FBE0F901F9018951F92C5
:100380000F920FB60F9211242F933F938F939F9349
:10039000AF93BF9380911F0190912001A091210103
:1003A000B091220130911E0123E0230F2D3720F45C
:1003B0000196A11DB11D05C026E8230F0296A11DBF
:1003C000B11D20931E0180931F0190932001A093E3
:1003D0002101B09322018091230190912401A091E9
:1003E0002501B09126010196A11DB11D8093230125
:1003F00090932401A0932501B0932601BF91AF9162
:100400009F918F913F912F910F900FBE0F901F9052
:100410001895EFEAF1E01382128288EE93E0A0E0F3
:10042000B0E084839583A683B78384E091E09183D1
:1004300080838BE691E09587848787E291E09787B8
:10044000868785EC90E0918B808B84EC90E0938B99
:10045000828B80EC90E0958B848B81EC90E0978B85
:10046000868B82EC90E0918F808F86EC90E0938F6A
:10047000828F84E0848F83E0858F87E0868F85E09C
:10048000878F81E080A30895789484B5826084BDCD
:1004900084B5816084BD85B5826085BD85B5816088
:1004A00085BD80916E00816080936E001092810006
:1004B00080918100826080938100809181008160C1
:1004C0008093810080918000816080938000809182
:1004D000B10084608093B1008091B000816080930E
:1004E000B00080917A00846080937A0080917A00D5
:1004F000826080937A0080917A00816080937A0094
:1005000080917A00806880937A001092C100E09117
:10051000C301F091C40181E090E09C010090CF0103
:1005200002C0220F331F0A94E2F72083E091BF013B
:10053000F091C0011082E091C101F091C2012FEC55
:1005400020831092D001E091C501F091C601408155
:100550009C010090CB0102C0220F331F0A94E2F7E6
:10056000242B2083E091C501F091C60140819C01BC
:100570000090CC0102C0220F331F0A94E2F7242B13
:100580002083E091C501F091C60140819C0100905B
:10059000CD0102C0220F331F0A94E2F7242B2083DF
:1005A000E091C501F091C60120810090CE0102C00A
:1005B000880F991F0A94E2F78095822380834CE08C
:1005C00050E060E171E08FEA91E00E94FD000E943E
:1005D0002501EB0188EEC82E83E0D82EE12CF12C0A
:1005E0000E9425016C1B7D0B683E734038F081E052
:1005F000C81AD108E108F108C851DC4FC114D10470
:10060000E104F10469F70E94F800D9CFF8940C9442
:100610000F03EE0FFF1F0590F491E02D0994F8945D
:02062000FFCF0A
:10062200000000005F00FD00E800AC00CC00A1006B
:0E06320048656C6C6F20576F726C640A000094
:00000001FF
