:100000000C9435000C945D000C945D000C945D0024
:100010000C945D000C945D000C945D000C945D00EC
:100020000C945D000C945D000C945D000C945D00DC
:100030000C945D000C945D000C945D000C945D00CC
:100040000C9426020C945D000C94EC010C94B1010C
:100050000C945D000C945D000C945D000C945D00AC
:100060000C945D000C945D00700211241FBECFEF54
:10007000D8E0DEBFCDBF11E0A0E0B1E0E0E6F7E000
:1000800002C005900D92A031B107D9F721E0A0E19F
:10009000B1E001C01D92A33CB207E1F710E0C5E357
:1000A000D0E004C02197FE010E94A803C433D10709
:1000B000C9F70E94AB020C9483030C940000E091FA
:1000C000A101F091A2010190F081E02D682F81EA59
:1000D00091E009940F931F93CF93DF93FC01A685C2
:1000E000B7858D01005C1F4FE801888199810196D9
:1000F0008F739927AD014E5B5F4FEA0128813981EB
:1001000082179307D1F3E80128813981A20FB31F29
:100110006C93A685B785A05CBF4F11969C938E9378
:10012000A689B7892C9181E090E0078C02C0880FE6
:10013000991F0A94E2F7822B8C9381E081A30488B3
:10014000F589E02D80818064808381E090E0DF91FB
:10015000CF911F910F910895FC0181A1882329F06F
:10016000A489B5898C9186FFFBCF11A20895FC016B
:10017000A485B585FD01E05CFF4F20813181329679
:10018000808191812817390779F080819181A80FAA
:10019000B91F8C91208131812F5F3F4F2F733327FF
:1001A0003183208390E008958FEF9FEF0895DC0165
:1001B0001C96ED91FC911D97DF01A05CBF4F2D9126
:1001C0003C91119712968D919C91119728173907A0
:1001D00039F08D919C91E80FF91F808190E008958E
:1001E0008FEF9FEF0895FC0124853585F901E05CD0
:1001F000FF4F80819181329620813181821B930B48
:100200008F739927089581EA91E00C94F300089583
:10021000CF92DF92EF92FF920F931F93CF93DF93D2
:100220006C01EB017B01E40EF51E00E010E0CE1541
:10023000DF0561F06991D601ED91FC910190F081AB
:10024000E02DC6010995080F191FF1CFC801DF91F4
:10025000CF911F910F91FF90EF90DF90CF90089575
:100260003FB7F8948091150190911601A091170164
:10027000B091180126B5A89B05C02F3F19F0019633
:10028000A11DB11D3FBFBA2FA92F982F8827820F1C
:10029000911DA11DB11DBC01CD0142E0660F771F6C
:1002A000881F991F4A95D1F708958F929F92AF9218
:1002B000BF92EF92FF920F931F93CF93DF93CDB72F
:1002C000DEB7A1970FB6F894DEBF0FBECDBF162FD5
:1002D000042F19A2423008F40AE07E0121E2E20E66
:1002E000F11C802E912CA12CB12C612FA501940121
:1002F0000E948603029F1019112481E0E81AF10878
:100300001A3014F4105D01C0195CF7011083122F2C
:10031000732FCA01232B242B252B39F7E114F10469
:1003200069F001900020E9F73197AF014E195F099C
:10033000B70181EA91E00E94080102C080E090E0EC
:10034000A1960FB6F894DEBF0FBECDBFDF91CF915F
:100350001F910F91FF90EF90BF90AF909F908F9063
:1003600008951F920F920FB60F9211242F933F936F
:100370008F939F93EF93FF932091590130915A01EE
:1003800080915B0190915C012817390731F48091CD
:10039000C1008F7D8093C10014C0E0915B01F0919A
:1003A0005C01E75EFE4F208180915B0190915C01D2
:1003B00001968F73992790935C0180935B01209342
:1003C000C600FF91EF919F918F913F912F910F90D8
:1003D0000FBE0F901F9018951F920F920FB60F929D
:1003E00011242F934F935F938F939F93EF93FF93DA
:1003F0008091C00082FD1CC02091C60080919D01AB
:1004000090919E0101968F73992740919F01509181
:10041000A0018417950771F0E0919D01F0919E0174
:10042000E35AFE4F208390939E0180939D0102C06A
:100430008091C600FF91EF919F918F915F914F91B5
:100440002F910F900FBE0F901F9018951F920F9233
:100450000FB60F9211242F933F938F939F93AF93D7
:10046000BF938091110190911201A0911301B0915D
:1004700014013091100123E0230F2D3720F4019651
:10048000A11DB11D05C026E8230F0296A11DB11DB7
:10049000209310018093110190931201A0931301F6
:1004A000B09314018091150190911601A09117014C
:1004B000B09118010196A11DB11D80931501909373
:1004C0001601A0931701B0931801BF91AF919F91AE
:1004D0008F913F912F910F900FBE0F901F90189505
:1004E000E1EAF1E01382128288EE93E0A0E0B0E04E
:1004F00084839583A683B78384E091E0918380838E
:100500008DE591E09587848789E191E097878687DB
:1005100085EC90E0918B808B84EC90E0938B828BC8
:1005200080EC90E0958B848B81EC90E0978B868BB0
:1005300082EC90E0918F808F86EC90E0938F828F99
:1005400084E0848F83E0858F87E0868F85E0878FC6
:1005500081E080A30895789484B5826084BD84B5D9
:10056000816084BD85B5826085BD85B5816085BDAE
:1005700080916E00816080936E0010928100809166
:1005800081008260809381008091810081608093EE
:100590008100809180008160809380008091B10013
:1005A00084608093B1008091B00081608093B0003E
:1005B00080917A00846080937A0080917A008260D2
:1005C00080937A0080917A00816080937A00809194
:1005D0007A00806880937A001092C100E091B501A2
:1005E000F091B60181E090E09C010090C10102C051
:1005F000220F331F0A94E2F72083E091B101F091BA
:10060000B2011082E091B301F091B4012FEC20838C
:100610001092C201E091B701F091B80140819C01B4
:100620000090BD0102C0220F331F0A94E2F7242B71
:100630002083E091B701F091B80140819C010090C6
:10064000BE0102C0220F331F0A94E2F7242B20833D
:10065000E091B701F091B80140819C010090BF0189
:1006600002C0220F331F0A94E2F7242B2083E0916B
:10067000B701F091B80120810090C00102C0880F3D
:10068000991F0A94E2F7809582238083C0E4C09387
:100690007C0080917A00806480937A0080917A0057
:1006A00086FDFCCF809178002091790090E0922B1C
:1006B0006C01092E000CEE08FF0897FF0CC08DE2BC
:1006C0000E945F0066277727CB016C197D098E0990
:1006D0009F094AE003C04AE0C701B6010E945501E4
:1006E0008DE00E945F008AE00E945F000E9430015E
:1006F0007B010E9430016E197F09683E7340C8F388
:100700000E940301C4CFF8940C94AE03A1E21A2E08
:10071000AA1BBB1BFD010DC0AA1FBB1FEE1FFF1FA5
:10072000A217B307E407F50720F0A21BB30BE40BF5
:10073000F50B661F771F881F991F1A9469F760953C
:100740007095809590959B01AC01BD01CF010895F6
:10075000EE0FFF1F0590F491E02D0994F894FFCF60
:10076000000000006A000801F300B700D700AC00E9
:00000001FF
