:100000000C9461000C9473000C9473000C947300B6
:100010000C9473000C9473000C9473000C94730094
:100020000C9473000C9473000C9473000C94730084
:100030000C9473000C9473000C9473000C94730074
:100040000C942F010C9473000C9473000C947300A7
:100050000C9473000C9473000C9473000C94730054
:100060000C9473000C94730000000000240027001F
:100070002A0000000000250028002B0000000000DE
:1000800023002600290004040404040404040202DA
:100090000202020203030303030301020408102007
:1000A0004080010204081020010204081020000012
:1000B0000007000201000003040600000000000029
:1000C000000011241FBECFEFD8E0DEBFCDBF21E07E
:1000D000A0E0B1E001C01D92AC30B207E1F70E9490
:1000E00079010C947E020C940000833081F028F496
:1000F000813099F08230A1F008958630A9F08730E0
:10010000B9F08430D1F4809180008F7D03C080915C
:1001100080008F7780938000089584B58F7702C028
:1001200084B58F7D84BD08958091B0008F7703C022
:100130008091B0008F7D8093B00008951F93CF937E
:10014000DF93282F30E0F901E255FF4F8491F90148
:10015000E656FF4FD491F901EA57FF4FC491CC23E3
:10016000C9F0162F81110E947500EC2FF0E0EE0F00
:10017000FF1FEE58FF4FA591B4918FB7F89411115E
:1001800005C09C91ED2FE095E92302C0EC91ED2B89
:10019000EC938FBFDF91CF911F910895CF93DF93A1
:1001A00090E0FC01E656FF4F2491FC01EA57FF4F17
:1001B0008491882361F190E0880F991FFC01E85930
:1001C000FF4FC591D491FC01EE58FF4FA591B4911A
:1001D000611109C09FB7F894888120958223888394
:1001E000EC912E230BC0623061F49FB7F8943881F4
:1001F000822F809583238883EC912E2B2C939FBF95
:1002000006C08FB7F894E8812E2B28838FBFDF912B
:10021000CF9108953FB7F894809105019091060120
:10022000A0910701B091080126B5A89B05C02F3FFA
:1002300019F00196A11DB11D3FBFBA2FA92F982F0C
:100240008827820F911DA11DB11DBC01CD0142E087
:10025000660F771F881F991F4A95D1F708951F923F
:100260000F920FB60F9211242F933F938F939F936A
:10027000AF93BF938091010190910201A09103017E
:10028000B09104013091000123E0230F2D3720F4B9
:100290000196A11DB11D05C026E8230F0296A11DE0
:1002A000B11D209300018093010190930201A0935E
:1002B0000301B09304018091050190910601A09182
:1002C0000701B09108010196A11DB11D80930501A0
:1002D00090930601A0930701B0930801BF91AF91DD
:1002E0009F918F913F912F910F900FBE0F901F9074
:1002F0001895789484B5826084BD84B5816084BD8E
:1003000085B5826085BD85B5816085BD80916E00B3
:10031000816080936E0010928100809181008260E4
:100320008093810080918100816080938100809121
:1003300080008160809380008091B1008460809310
:10034000B1008091B00081608093B00080917A000C
:10035000846080937A0080917A00826080937A0032
:1003600080917A00816080937A0080917A00806821
:1003700080937A001092C10061E083E00E94CE0079
:1003800060E08EE00E94CE00CCEBD0E008EA10E006
:1003900044E9242E40E0342E51EBA52E50E0B52E3A
:1003A0002FE3622E30E0832E30E0932EFE01849105
:1003B000F8015490F1017490772079F081110E9436
:1003C0007500E72DF0E0EE0FFF1FE458FF4FA591F9
:1003D000B4918C91582281E009F480E08170782EEC
:1003E00080910B01871108C070920B018114910458
:1003F000E9F20E940000D4CF772009F461C0809117
:10040000090190910A01019664E070E00E94810266
:1004100090930A0180930901689E2001699E500C07
:10042000112461E083E00E94CE004114510411F4D4
:1004300060E043C0F50184918330F9F048F48130E5
:10044000B9F08230A1F584B5806284BD48BC38C063
:100450008630E9F0873019F1843049F580918000C9
:1004600080628093800050928B0040928A0028C066
:1004700084B5806884BD47BC23C0809180008068BB
:1004800080938000509289004092880019C080912A
:10049000B00080688093B0004092B30011C080919A
:1004A000B00080628093B0004092B40009C0F0E8D0
:1004B0004F1651040CF4BCCF61E083E00E949E0013
:1004C0000E940A012B0184E6C82ED12CE12CF12CCC
:1004D0000E940A0164197509683E734048F0E1E022
:1004E000CE1AD108E108F108F8E14F1AFCEF5F0AD3
:1004F000C114D104E104F10459F776CFF8940C94B7
:10050000A90297FB072E16F4009407D077FD09D0B7
:100510000E94950207FC05D03EF4909581959F4F6F
:100520000895709561957F4F0895AA1BBB1B51E1FB
:1005300007C0AA1FBB1FA617B70710F0A61BB70B53
:10054000881F991F5A95A9F780959095BC01CD01F8
:060550000895F894FFCFAE
:00000001FF
