:100000000C9462000C948A000C948A000C948A0070
:100010000C948A000C948A000C948A000C948A0038
:100020000C948A000C948A000C948A000C948A0028
:100030000C948A000C948A000C948A000C948A0018
:100040000C94E7010C948A000C946C020C9431021D
:100050000C948A000C948A000C948A000C948A00F8
:100060000C948A000C948A000000000025002800EF
:100070002B0000000000240027002A0000000000E0
:1000800023002600290004040404040404040202DA
:100090000202020203030303030301020408102007
:1000A0004080010204081020010204081020000012
:1000B0000007000201000003040600000000000029
:1000C0000000A60211241FBECFEFD8E0DEBFCDBFD7
:1000D00011E0A0E0B1E0EEE6F8E002C005900D927C
:1000E000A232B107D9F721E0A2E2B1E001C01D922E
:1000F000A53DB207E1F710E0C2E6D0E004C02197C9
:10010000FE010E942F04C136D107C9F70E94E10207
:100110000C940A040C9400000F931F93CF93DF9369
:10012000FC01A685B7858D01005C1F4FE801888121
:10013000998101968F739927AD014E5B5F4FEA015C
:100140002881398182179307D1F3E8012881398109
:10015000A20FB31F6C93A685B785A05CBF4F119605
:100160009C938E93A689B7892C9181E090E0078CAF
:1001700002C0880F991F0A94E2F7822B8C9381E0CA
:1001800081A30488F589E02D80818064808381E0EB
:1001900090E0DF91CF911F910F910895FC0181A113
:1001A000882329F0A489B5898C9186FFFBCF11A201
:1001B0000895FC01A485B585FD01E05CFF4F208119
:1001C00031813296808191812817390779F08081B9
:1001D0009181A80FB91F8C91208131812F5F3F4FF2
:1001E0002F7333273183208390E008958FEF9FEFA3
:1001F0000895DC011C96ED91FC911D97DF01A05C38
:10020000BF4F2D913C91119712968D919C91119712
:100210002817390739F08D919C91E80FF91F8081DB
:1002200090E008958FEF9FEF0895FC0124853585B8
:10023000F901E05CFF4F808191813296208131810C
:10024000821B930B8F739927089583EB91E00C9495
:1002500015010895CF92DF92EF92FF920F931F93B3
:10026000CF93DF936C01EB017B01E40EF51E00E000
:1002700010E0CE15DF0561F06991D601ED91FC919A
:100280000190F081E02DC6010995080F191FF1CFEB
:10029000C801DF91CF911F910F91FF90EF90DF90F8
:1002A000CF900895009769F0FC0101900020E9F7D4
:1002B0003197AF01481B590BBC0183EB91E00C94C3
:1002C0002A0180E090E008958F929F92AF92BF92B2
:1002D000EF92FF920F931F93CF93DF93CDB7DEB7CB
:1002E000A1970FB6F894DEBF0FBECDBF162F042F17
:1002F00019A2423008F40AE07E0121E2E20EF11C6C
:10030000802E912CA12CB12C612FA50194010E946B
:100310000D04029F1019112481E0E81AF1081A3027
:1003200014F4105D01C0195CF7011083122F732FB4
:10033000CA01232B242B252B39F7C7010E94520118
:10034000A1960FB6F894DEBF0FBECDBFDF91CF915F
:100350001F910F91FF90EF90BF90AF909F908F9063
:100360000895CF92DF92EF92FF92CF93DF936C01CB
:10037000990FEE08FF08F7FE1FC0E091B301F0915E
:10038000B4010190F081E02D6DE283EB91E00995DD
:10039000EC0166277727CB016C197D098E099F092F
:1003A0004AE00E9464018C0F9D1FDF91CF91FF9066
:1003B000EF90DF90CF9008954AE0C701B601DF913A
:1003C000CF91FF90EF90DF90CF900C9464011F923B
:1003D0000F920FB60F9211242F933F938F939F93F9
:1003E000AF93BF938091AF019091B001A091B10103
:1003F000B091B2013091AE0123E0230F2D3720F4EC
:100400000196A11DB11D05C026E8230F0296A11D6E
:10041000B11D2093AE018093AF019093B001A093E2
:10042000B101B093B2018091AA019091AB01A0916A
:10043000AC01B091AD010196A11DB11D8093AA013F
:100440009093AB01A093AC01B093AD01BF91AF917C
:100450009F918F913F912F910F900FBE0F901F9002
:1004600018951F920F920FB60F9211242F933F935E
:100470008F939F93EF93FF932091620130916301DB
:1004800080916401909165012817390731F48091BA
:10049000C1008F7D8093C10014C0E0916401F09190
:1004A0006501EE5DFE4F20818091640190916501B0
:1004B00001968F739927909365018093640120932F
:1004C000C600FF91EF919F918F913F912F910F90D7
:1004D0000FBE0F901F9018951F920F920FB60F929C
:1004E00011242F934F935F938F939F93EF93FF93D9
:1004F0008091C00082FD1CC02091C6008091A601A1
:100500009091A70101968F7399274091A80150916E
:10051000A9018417950771F0E091A601F091A70158
:10052000EA59FE4F20839093A7018093A60102C051
:100530008091C600FF91EF919F918F915F914F91B4
:100540002F910F900FBE0F901F901895E3EBF1E0E5
:100550001382128288EE93E0A0E0B0E0848395835A
:10056000A683B78384E091E09183808386E691E05F
:100570009587848782E291E09787868785EC90E073
:10058000918B808B84EC90E0938B828B80EC90E05D
:10059000958B848B81EC90E0978B868B82EC90E03E
:1005A000918F808F86EC90E0938F828F84E0848F90
:1005B00083E0858F87E0868F85E0878F81E080A349
:1005C0000895789484B5826084BD84B5816084BDCB
:1005D00085B5826085BD85B5816085BD80916E00E1
:1005E000816080936E001092810080918100826012
:1005F000809381008091810081608093810080914F
:1006000080008160809380008091B100846080933D
:10061000B1008091B00081608093B00080917A0039
:10062000846080937A0080917A00826080937A005F
:1006300080917A00816080937A0080917A0080684E
:1006400080937A001092C100E091C701F091C80137
:1006500081E090E09C010090D30102C0220F331F83
:100660000A94E2F72083E091C301F091C401108263
:10067000E091C501F091C6012FEC20831092D401C6
:10068000E091C901F091CA0140819C010090CF0125
:1006900002C0220F331F0A94E2F7242B2083E0913B
:1006A000C901F091CA0140819C010090D00102C0B3
:1006B000220F331F0A94E2F7242B2083E091C90113
:1006C000F091CA0140819C010090D10102C0220F2B
:1006D000331F0A94E2F7242B2083E091C901F091A3
:1006E000CA0120810090D20102C0880F991F0A948C
:1006F000E2F7809582238083C1EAD0E0FE01249155
:100700000DE810E0F80184918823C9F090E0880F8B
:10071000991FFC01EE58FF4FA591B49188599F4F46
:10072000FC01459154913FB7F8949C91822F80959C
:1007300098239C93FA019081892380833FBF90E4A2
:10074000992E25EBE22E20E0F22E90927C008091F3
:100750007A00806480937A0080917A0086FDFCCFD5
:10076000C090780080917900D12CD82AF70184912B
:10077000FE019491F80124912223C9F1882339F1D3
:10078000833091F038F48130A9F0823001F584B5DE
:100790008F7D12C0863091F08730A1F08430B9F49B
:1007A000809180008F7D03C0809180008F7780933F
:1007B00080000DC084B58F7784BD09C08091B000E2
:1007C0008F7703C08091B0008F7D8093B00030E0C0
:1007D000220F331F24583F4FF901A591B4918C91FA
:1007E000982381E0B12C09F480E0A82E02C0A12C4E
:1007F000B12C80E191E00E945201C5010E94B1013B
:100800008AE191E00E945201C6010E94B1010E945A
:1008100025019BCFF8940C943504A1E21A2EAA1B53
:10082000BB1BFD010DC0AA1FBB1FEE1FFF1FA217A0
:10083000B307E407F50720F0A21BB30BE40BF50B9D
:10084000661F771F881F991F1A9469F76095709526
:10085000809590959B01AC01BD01CF010895EE0FED
:0E086000FF1F0590F491E02D0994F894FFCF4E
:10086E00000000008C002A011501D900F900CE000D
:10087E00627574746F6E203D200020706F74203D81
:02088E00200048
:00000001FF
